{
  "transactions": [
    {
      "hash": "0x849d4ff893f40684dcb131671510368f8d10a595571d70121274f0a4e04a03dd",
      "transactionType": "CREATE",
      "contractName": "PythOracle",
      "contractAddress": "0xcd749d672ff39fd6b4a52222082cbe257e1fe8ca",
      "function": null,
      "arguments": [
        "0x8250f4aF4B972684F7b336503E2D6dFeDeB1487a",
        "0xe62df6c8b4a85fe1a67db44dc12de5db330f7ac66b72dc658afedf0f4a415b43",
        "3600"
      ],
      "transaction": {
        "from": "0xc5e1d8ac5aecb1db7c04f9f7a8d7c08a8824720c",
        "to": null,
        "gas": "0x6740d",
        "value": "0x0",
        "input": "0x60e060405234801561000f575f80fd5b506040516105a43803806105a483398101604081905261002e91610047565b6001600160a01b0390921660805260a05260c052610086565b5f805f60608486031215610059575f80fd5b83516001600160a01b038116811461006f575f80fd5b602085015160409095015190969495509392505050565b60805160a05160c0516104e26100c25f395f8181608d015261012b01525f81816053015261010501525f818160bc015261015d01526104e25ff3fe608060405234801561000f575f80fd5b506004361061004a575f3560e01c8063311893341461004e578063687043c51461008857806398d5fdca146100af578063f98d06f0146100b7575b5f80fd5b6100757f000000000000000000000000000000000000000000000000000000000000000081565b6040519081526020015b60405180910390f35b6100757f000000000000000000000000000000000000000000000000000000000000000081565b6100756100f6565b6100de7f000000000000000000000000000000000000000000000000000000000000000081565b6040516001600160a01b03909116815260200161007f565b60405163052571af60e51b81527f000000000000000000000000000000000000000000000000000000000000000060048201527f000000000000000000000000000000000000000000000000000000000000000060248201525f9081906001600160a01b037f0000000000000000000000000000000000000000000000000000000000000000169063a4ae35e090604401608060405180830381865afa1580156101a2573d5f803e3d5ffd5b505050506040513d601f19601f820116820180604052508101906101c691906102a2565b90505f815f015160070b1361020d5760405162461bcd60e51b81526020600482015260096024820152684241445f505249434560b81b604482015260640160405180910390fd5b8051604082015167ffffffffffffffff909116905f906102319060030b6012610341565b90505f81126102575761024581600a61044a565b61024f908361045c565b935050505090565b61026081610473565b61026b90600a61044a565b61024f908361048d565b805167ffffffffffffffff8116811461028c575f80fd5b919050565b8051600381900b811461028c575f80fd5b5f608082840312156102b2575f80fd5b6040516080810181811067ffffffffffffffff821117156102e157634e487b7160e01b5f52604160045260245ffd5b6040528251600781900b81146102f5575f80fd5b815261030360208401610275565b602082015261031460408401610291565b6040820152606083015160608201528091505092915050565b634e487b7160e01b5f52601160045260245ffd5b8082018281125f8312801582168215821617156103605761036061032d565b505092915050565b600181815b808511156103a257815f19048211156103885761038861032d565b8085161561039557918102915b93841c939080029061036d565b509250929050565b5f826103b857506001610444565b816103c457505f610444565b81600181146103da57600281146103e457610400565b6001915050610444565b60ff8411156103f5576103f561032d565b50506001821b610444565b5060208310610133831016604e8410600b8410161715610423575081810a610444565b61042d8383610368565b805f19048211156104405761044061032d565b0290505b92915050565b5f61045583836103aa565b9392505050565b80820281158282048414176104445761044461032d565b5f600160ff1b82016104875761048761032d565b505f0390565b5f826104a757634e487b7160e01b5f52601260045260245ffd5b50049056fea2646970667358221220c968db795d8982e723100b16074086348ac0b52807683b3921e35656ae2e2c4964736f6c634300081800330000000000000000000000008250f4af4b972684f7b336503e2d6dfedeb1487ae62df6c8b4a85fe1a67db44dc12de5db330f7ac66b72dc658afedf0f4a415b430000000000000000000000000000000000000000000000000000000000000e10",
        "nonce": "0x2b",
        "chainId": "0x2105"
      },
      "additionalContracts": [],
      "isFixedGasLimit": false
    },
    {
      "hash": "0x861127d66dc4aa6fea4d44e2196c6fbb1c15afee9e141a88d7da4712b33c1e9e",
      "transactionType": "CREATE",
      "contractName": "PerpMarket",
      "contractAddress": "0xfe326c7559c2f39b3b5195048e04bbc077ef1245",
      "function": null,
      "arguments": [
        "0x833589fCD6eDb6E08f4c7C32D4f71b54bdA02913",
        "0xcD749d672Ff39FD6B4a52222082CBe257e1FE8CA",
        "1000000000000000000000",
        "63733740000000000000000000"
      ],
      "transaction": {
        "from": "0xc5e1d8ac5aecb1db7c04f9f7a8d7c08a8824720c",
        "to": null,
        "gas": "0x2b1142",
        "value": "0x0",
        "input": "0x60e06040526802b5e3af16b1880000600255662386f26fc100006003556611c37937e0800060045566038d7ea4c68000600555610e10601055600160165534801562000049575f80fd5b50604051620025a4380380620025a48339810160408190526200006c91620001f1565b5f821180156200007b57505f81115b620000bc5760405162461bcd60e51b815260206004820152600c60248201526b4241445f524553455256455360a01b60448201526064015b60405180910390fd5b5f8054336001600160a01b03199182161782556001600160a01b03868116608081905260018054909316918716919091179091556040805163313ce56760e01b8152905163313ce567916004808201926020929091908290030181865afa1580156200012a573d5f803e3d5ffd5b505050506040513d601f19601f820116820180604052508101906200015091906200023b565b905060128160ff161115620001935760405162461bcd60e51b8152602060048201526008602482015267444543494d414c5360c01b6044820152606401620000b3565b620001a081601262000278565b620001ad90600a62000393565b60a052600e839055600f829055620001c68284620003a3565b60c05250504260115550620003bd915050565b6001600160a01b0381168114620001ee575f80fd5b50565b5f805f806080858703121562000205575f80fd5b84516200021281620001d9565b60208601519094506200022581620001d9565b6040860151606090960151949790965092505050565b5f602082840312156200024c575f80fd5b815160ff811681146200025d575f80fd5b9392505050565b634e487b7160e01b5f52601160045260245ffd5b60ff828116828216039081111562000294576200029462000264565b92915050565b600181815b80851115620002da57815f1904821115620002be57620002be62000264565b80851615620002cc57918102915b93841c93908002906200029f565b509250929050565b5f82620002f25750600162000294565b816200030057505f62000294565b8160018114620003195760028114620003245762000344565b600191505062000294565b60ff84111562000338576200033862000264565b50506001821b62000294565b5060208310610133831016604e8410600b841016171562000369575081810a62000294565b6200037583836200029a565b805f19048211156200038b576200038b62000264565b029392505050565b5f6200025d60ff841683620002e2565b808202811582820484141762000294576200029462000264565b60805160a05160c0516121686200043c5f395f81816104910152818161126a0152818161130d015281816118f20152818161194301528181611d1d0152611d8f01525f81816105850152818161070901528181610c2601526115db01525f81816105300152818161081101528181610cd1015261154801526121685ff3fe608060405234801561000f575f80fd5b506004361061026b575f3560e01c8063a7cd52cb1161014b578063d468e2a9116100bf578063e03956f911610084578063e03956f914610564578063e32557311461056d578063ec0bdcfc14610580578063ed83d79c146105a7578063f2fde38b146105af578063f52b6c23146105c2575f80fd5b8063d468e2a91461050f578063d7376af314610518578063d8dfeb451461052b578063dc6638f414610552578063dfdf2a721461055b575f80fd5b8063b790230311610110578063b7902303146104c6578063b8c1b9a6146104cf578063c1af94d5146104d8578063c393d0e3146104eb578063cc4c5efb146104f3578063cfe7110314610506575f80fd5b8063a7cd52cb1461044e578063ae3302c214610470578063b12527f814610479578063b4f40c611461048c578063b6b55f25146104b3575f80fd5b80635c975abb116101e257806383acb48a116101a757806383acb48a146103ef5780638cf20ab8146103f85780638da5cb5b1461040b5780638e6feea91461041d5780639849e4121461043c5780639da771f414610445575f80fd5b80635c975abb1461039b57806360409632146103b85780637adbf973146103c05780637dc0d1d0146103d35780638120b352146103e6575f80fd5b8063321d7fa911610233578063321d7fa9146102ef5780633d385e4f146102f85780633d5333f6146103015780634ee2e2d81461031457806355f575101461033f57806358c0994a14610393575f80fd5b806316c38b3c1461026f578063212bf3161461028457806329fd9747146102975780632e1a7d4d146102c95780632f865568146102dc575b5f80fd5b61028261027d366004611df1565b6105d5565b005b610282610292366004611e13565b61064e565b6102b66102a5366004611e47565b60146020525f908152604090205481565b6040519081526020015b60405180910390f35b6102826102d7366004611e62565b6106bf565b6102826102ea366004611e47565b6108d6565b6102b660115481565b6102b660125481565b6102b661030f366004611e47565b610965565b600654610327906001600160a01b031681565b6040516001600160a01b0390911681526020016102c0565b61037361034d366004611e47565b60156020525f908152604090208054600182015460028301546003909301549192909184565b6040805194855260208501939093529183015260608201526080016102c0565b6102b6610975565b600d546103a89060ff1681565b60405190151581526020016102c0565b6102b66109e5565b6102826103ce366004611e47565b610a09565b600154610327906001600160a01b031681565b6102b660075481565b6102b660035481565b610282610406366004611e79565b610a54565b5f54610327906001600160a01b031681565b6102b661042b366004611e47565b600a6020525f908152604090205481565b6102b660105481565b6102b6600f5481565b6103a861045c366004611e47565b60086020525f908152604090205460ff1681565b6102b660025481565b610282610487366004611ea3565b610ad6565b6102b67f000000000000000000000000000000000000000000000000000000000000000081565b6102826104c1366004611e62565b610b5d565b6102b660135481565b6102b660055481565b6102b66104e6366004611e47565b610dd7565b610282610e47565b6102b6610501366004611e47565b610e80565b6102b660045481565b6102b6600c5481565b610282610526366004611eda565b610f44565b6103277f000000000000000000000000000000000000000000000000000000000000000081565b6102b6600b5481565b6102b6600e5481565b6102b660095481565b61028261057b366004611f09565b610f81565b6102b67f000000000000000000000000000000000000000000000000000000000000000081565b610282611427565b6102826105bd366004611e47565b611456565b6102826105d0366004611e62565b6114e2565b5f546001600160a01b031633146106075760405162461bcd60e51b81526004016105fe90611f3b565b60405180910390fd5b600d805460ff19168215159081179091556040519081527f40db37ff5c0bdc2c427fbb2078c8f24afea940abac0e3c23bb4ea3bf2da2b2129060200160405180910390a150565b5f546001600160a01b031633146106775760405162461bcd60e51b81526004016105fe90611f3b565b6009829055600b81905560408051838152602081018390527f9f018708d80293ae51583d43213b697a25c139d11620717f5948750937b9096791015b60405180910390a15050565b6016546001146106e15760405162461bcd60e51b81526004016105fe90611f5e565b6002601655806107035760405162461bcd60e51b81526004016105fe90611f81565b5f61072e7f000000000000000000000000000000000000000000000000000000000000000083611fb3565b335f9081526014602052604090205490915081111561077e5760405162461bcd60e51b815260206004820152600c60248201526b125394d551919250d251539560a21b60448201526064016105fe565b335f908152601460205260408120805483929061079c908490611fca565b9091555050335f908152600a60205260409020548110156107d657335f908152600a60205260409020546107d1908290611fca565b6107d8565b5f5b335f818152600a60205260409081902092909255905163a9059cbb60e01b81526004810191909152602481018390526001600160a01b037f0000000000000000000000000000000000000000000000000000000000000000169063a9059cbb906044016020604051808303815f875af1158015610857573d5f803e3d5ffd5b505050506040513d601f19601f8201168201806040525081019061087b9190611fdd565b6108975760405162461bcd60e51b81526004016105fe90611ff8565b60405182815233907f7084f5476618d8e60b11ef0d7d3f06914655adb8793e28ff7f018d4c76d505d5906020015b60405180910390a250506001601655565b6016546001146108f85760405162461bcd60e51b81526004016105fe90611f5e565b600260165561090561161d565b60035461091182611742565b126109515760405162461bcd60e51b815260206004820152601060248201526f4e4f545f4c4951554944415441424c4560801b60448201526064016105fe565b61095d81600133611827565b506001601655565b5f61096f82611742565b92915050565b60015460408051634c6afee560e11b815290515f926001600160a01b0316916398d5fdca9160048083019260209291908290030181865afa1580156109bc573d5f803e3d5ffd5b505050506040513d601f19601f820116820180604052508101906109e0919061201f565b905090565b5f600e54670de0b6b3a7640000600f546109ff9190611fb3565b6109e0919061204a565b5f546001600160a01b03163314610a325760405162461bcd60e51b81526004016105fe90611f3b565b600180546001600160a01b0319166001600160a01b0392909216919091179055565b5f546001600160a01b03163314610a7d5760405162461bcd60e51b81526004016105fe90611f3b565b600680546001600160a01b0319166001600160a01b038416908117909155600782905560408051918252602082018390527f5dfb51afdd4d85ac5ba0dd2dc3ec645d0dd275b4b8be7d8f11d999d2ead426de91016106b3565b5f546001600160a01b03163314610aff5760405162461bcd60e51b81526004016105fe90611f3b565b6001600160a01b0382165f81815260086020908152604091829020805460ff191685151590811790915591519182527fff571df7d74779bb3bc4c418144ed2539441681cec39b558e6639f5faefc0695910160405180910390a25050565b601654600114610b7f5760405162461bcd60e51b81526004016105fe90611f5e565b6002601655600d5460ff1615610bc05760405162461bcd60e51b815260206004820152600660248201526514105554d15160d21b60448201526064016105fe565b610bc933611c42565b610c015760405162461bcd60e51b81526020600482015260096024820152681393d517d1d055115160ba1b60448201526064016105fe565b5f8111610c205760405162461bcd60e51b81526004016105fe90611f81565b5f610c4b7f000000000000000000000000000000000000000000000000000000000000000083611fb3565b60095490915015610caf57600954335f908152600a6020526040902054610c7390839061205d565b1115610caf5760405162461bcd60e51b815260206004820152600b60248201526a04445504f5349545f4341560ac1b60448201526064016105fe565b6040516323b872dd60e01b8152336004820152306024820152604481018390527f00000000000000000000000000000000000000000000000000000000000000006001600160a01b0316906323b872dd906064016020604051808303815f875af1158015610d1f573d5f803e3d5ffd5b505050506040513d601f19601f82011682018060405250810190610d439190611fdd565b610d5f5760405162461bcd60e51b81526004016105fe90611ff8565b335f9081526014602052604081208054839290610d7d90849061205d565b9091555050335f908152600a602052604081208054839290610da090849061205d565b909155505060405182815233907f2da466a7b24304f47e87fa2e1e5a81b9831ce54fec19055ce277ca2f39ba42c4906020016108c5565b6001600160a01b0381165f90815260156020908152604080832081516080810183528154808252600183015494820194909452600282015492810192909252600301546060820152908203610e2e57505f92915050565b610e3f815f01518260200151611cfb565b509392505050565b601654600114610e695760405162461bcd60e51b81526004016105fe90611f5e565b6002601655610e79335f81611827565b6001601655565b6001600160a01b0381165f90815260156020908152604080832081516080810183528154808252600183015494820194909452600282015492810192909252600301546060820152908203610ed757505f92915050565b5f610ee9825f01518360200151611cfb565b5090505f670de0b6b3a76400008360600151601254610f089190612070565b8451610f149190612096565b610f1e91906120c5565b905080828460400151610f3191906120f1565b610f3b9190612070565b95945050505050565b5f546001600160a01b03163314610f6d5760405162461bcd60e51b81526004016105fe90611f3b565b600293909355600391909155600455600555565b601654600114610fa35760405162461bcd60e51b81526004016105fe90611f5e565b6002601655600d5460ff1615610fe45760405162461bcd60e51b815260206004820152600660248201526514105554d15160d21b60448201526064016105fe565b610fed33611c42565b6110255760405162461bcd60e51b81526020600482015260096024820152681393d517d1d055115160ba1b60448201526064016105fe565b335f90815260156020526040902054156110735760405162461bcd60e51b815260206004820152600f60248201526e504f534954494f4e5f45584953545360881b60448201526064016105fe565b5f8111801561108457506002548111155b6110bf5760405162461bcd60e51b815260206004820152600c60248201526b4241445f4c4556455241474560a01b60448201526064016105fe565b5f821180156110dc5750335f908152601460205260409020548211155b61111e5760405162461bcd60e51b815260206004820152601360248201527224a729aaa32324a1a4a2a72a2fa6a0a923a4a760691b60448201526064016105fe565b61112661161d565b5f670de0b6b3a764000061113a8385611fb3565b611144919061204a565b90505f670de0b6b3a76400006005548361115e9190611fb3565b611168919061204a565b90508084116111a95760405162461bcd60e51b815260206004820152600d60248201526c4d415247494e5f4c545f46454560981b60448201526064016105fe565b600b54156111f957600b5482600c546111c2919061205d565b11156111f95760405162461bcd60e51b815260206004820152600660248201526504f495f4341560d41b60448201526064016105fe565b81600c5f82825461120a919061205d565b9091555050335f908152601460205260408120805486929061122d908490611fca565b925050819055508060135f828254611245919061205d565b909155505f905085156112b1575f83600f54611261919061205d565b90505f61128e827f000000000000000000000000000000000000000000000000000000000000000061204a565b905080600e5461129e9190611fca565b600e91909155600f919091559050611359565b600f5483106112f55760405162461bcd60e51b815260206004820152601060248201526f4e4f54494f4e414c5f544f4f5f42494760801b60448201526064016105fe565b5f83600f546113049190611fca565b90505f611331827f000000000000000000000000000000000000000000000000000000000000000061204a565b9050600e54816113419190611fca565b61134a90612118565b600e91909155600f9190915590505b6040518060800160405280828152602001848152602001838761137c9190611fca565b8152601254602091820152335f818152601583526040908190208451815592840151600184015583015160028301556060909201516003909101557f5636e8dea455ae62de0f90686da32f70a633e56f436b84ab6298a2f50727b697876113e38589611fca565b86856113ed6109e5565b6040805195151586526020860194909452928401919091526060830152608082015260a00160405180910390a25050600160165550505050565b6016546001146114495760405162461bcd60e51b81526004016105fe90611f5e565b6002601655610e7961161d565b5f546001600160a01b0316331461147f5760405162461bcd60e51b81526004016105fe90611f3b565b6001600160a01b0381166114c15760405162461bcd60e51b81526020600482015260096024820152682d22a927afa0a2222960b91b60448201526064016105fe565b5f80546001600160a01b0319166001600160a01b0392909216919091179055565b6016546001146115045760405162461bcd60e51b81526004016105fe90611f5e565b6002601655806115265760405162461bcd60e51b81526004016105fe90611f81565b6040516323b872dd60e01b8152336004820152306024820152604481018290527f00000000000000000000000000000000000000000000000000000000000000006001600160a01b0316906323b872dd906064016020604051808303815f875af1158015611596573d5f803e3d5ffd5b505050506040513d601f19601f820116820180604052508101906115ba9190611fdd565b6115d65760405162461bcd60e51b81526004016105fe90611ff8565b6116007f000000000000000000000000000000000000000000000000000000000000000082611fb3565b60135f828254611610919061205d565b9091555050600160165550565b5f6011544261162c9190611fca565b9050805f036116385750565b60015460408051634c6afee560e11b815290515f926001600160a01b0316916398d5fdca9160048083019260209291908290030181865afa15801561167f573d5f803e3d5ffd5b505050506040513d601f19601f820116820180604052508101906116a3919061201f565b90505f6116ae6109e5565b90505f6010548484846116c19190612070565b6116cb9190612096565b6116d591906120c5565b90508060125f8282546116e891906120f1565b9091555050426011556012546040805183815260208101929092528101839052606081018490527f6bb55e027745809a746c220e2e865d1f2ab4407602ceac1d79e45f2991e94bb99060800160405180910390a150505050565b6001600160a01b0381165f908152601560209081526040808320815160808101835281548082526001830154948201949094526002820154928101929092526003015460608201529082036117a057506001600160ff1b0392915050565b5f80825f0151136117bb5781516117b690612118565b6117be565b81515b90505f670de0b6b3a76400006117d26109e5565b6117dc9084611fb3565b6117e6919061204a565b9050805f0361180057506001600160ff1b03949350505050565b80670de0b6b3a764000061181387610e80565b61181d9190612096565b610f3b91906120c5565b6001600160a01b0383165f9081526015602090815260408083208151608081018352815480825260018301549482019490945260028201549281019290925260030154606082015291036118ab5760405162461bcd60e51b815260206004820152600b60248201526a2727afa827a9a4aa24a7a760a91b60448201526064016105fe565b826118b8576118b861161d565b5f806118cb835f01518460200151611cfb565b915091505f835f01511315611921578251600e545f916118ea9161205d565b9050611916817f000000000000000000000000000000000000000000000000000000000000000061204a565b600f55600e5561196e565b82515f9061192e90612118565b600e5461193b9190611fca565b9050611967817f000000000000000000000000000000000000000000000000000000000000000061204a565b600f55600e555b600c5483602001511015611993578260200151600c5461198e9190611fca565b611995565b5f5b600c5560608301516012545f91670de0b6b3a7640000916119b69190612070565b85516119c29190612096565b6119cc91906120c5565b90505f670de0b6b3a7640000600554846119e69190611fb3565b6119f0919061204a565b90508060135f828254611a03919061205d565b925050819055505f8183868860400151611a1d91906120f1565b611a279190612070565b611a319190612070565b6001600160a01b038a165f9081526015602052604081208181556001810182905560028101829055600301819055909150808213611a6f575f611a71565b815b90508815611b72575f670de0b6b3a764000060045487611a919190611fb3565b611a9b919061204a565b905081811115611aa85750805b6001600160a01b0389165f9081526014602052604081208054839290611acf90849061205d565b909155505f9050611ae08284611fca565b90508015611b15576001600160a01b038c165f9081526014602052604081208054839290611b0f90849061205d565b90915550505b896001600160a01b03168c6001600160a01b03167f20d0566d549d90c3d4381e5bde3839869444441a7d232674f39ca899467b39528487604051611b63929190918252602082015260400190565b60405180910390a35050611ba5565b8015611ba5576001600160a01b038a165f9081526014602052604081208054839290611b9f90849061205d565b90915550505b5f821215611be3575f611bb783612118565b90506013548111611bc85780611bcc565b6013545b60135f828254611bdc9190611fca565b9091555050505b896001600160a01b03167fbee50dd183e10945359b0125cf83af4d2ba9fd825c2c68bf50052640a6b311fc8786611c186109e5565b6040805193845260208401929092529082015260600160405180910390a250505050505050505050565b6006545f906001600160a01b0316611c5c57506001919050565b6001600160a01b0382165f9081526008602052604090205460ff1615611c8457506001919050565b6007546006546040516370a0823160e01b81526001600160a01b038581166004830152909116906370a0823190602401602060405180830381865afa158015611ccf573d5f803e3d5ffd5b505050506040513d601f19601f82011682018060405250810190611cf3919061201f565b101592915050565b5f805f841315611d6b575f84600e54611d14919061205d565b90505f611d41827f000000000000000000000000000000000000000000000000000000000000000061204a565b90505f81600f54611d529190611fca565b9350839050611d618682612070565b9450505050611dda565b5f611d7585612118565b90505f81600e54611d869190611fca565b90505f611db3827f000000000000000000000000000000000000000000000000000000000000000061204a565b90505f600f5482611dc49190611fca565b9450849050611dd38188612070565b9550505050505b9250929050565b8015158114611dee575f80fd5b50565b5f60208284031215611e01575f80fd5b8135611e0c81611de1565b9392505050565b5f8060408385031215611e24575f80fd5b50508035926020909101359150565b6001600160a01b0381168114611dee575f80fd5b5f60208284031215611e57575f80fd5b8135611e0c81611e33565b5f60208284031215611e72575f80fd5b5035919050565b5f8060408385031215611e8a575f80fd5b8235611e9581611e33565b946020939093013593505050565b5f8060408385031215611eb4575f80fd5b8235611ebf81611e33565b91506020830135611ecf81611de1565b809150509250929050565b5f805f8060808587031215611eed575f80fd5b5050823594602084013594506040840135936060013592509050565b5f805f60608486031215611f1b575f80fd5b8335611f2681611de1565b95602085013595506040909401359392505050565b6020808252600990820152682727aa2fa7aba722a960b91b604082015260600190565b60208082526009908201526814915153951490539560ba1b604082015260600190565b6020808252600490820152635a45524f60e01b604082015260600190565b634e487b7160e01b5f52601160045260245ffd5b808202811582820484141761096f5761096f611f9f565b8181038181111561096f5761096f611f9f565b5f60208284031215611fed575f80fd5b8151611e0c81611de1565b6020808252600d908201526c1514905394d1915497d1905253609a1b604082015260600190565b5f6020828403121561202f575f80fd5b5051919050565b634e487b7160e01b5f52601260045260245ffd5b5f8261205857612058612036565b500490565b8082018082111561096f5761096f611f9f565b8181035f83128015838313168383128216171561208f5761208f611f9f565b5092915050565b8082025f8212600160ff1b841416156120b1576120b1611f9f565b818105831482151761096f5761096f611f9f565b5f826120d3576120d3612036565b600160ff1b82145f19841416156120ec576120ec611f9f565b500590565b8082018281125f83128015821682158216171561211057612110611f9f565b505092915050565b5f600160ff1b820161212c5761212c611f9f565b505f039056fea26469706673582212205f6b57c0bd033726c234b0b3e6e6092aebaf898a75e3875de87b63095693c46d64736f6c63430008180033000000000000000000000000833589fcd6edb6e08f4c7c32d4f71b54bda02913000000000000000000000000cd749d672ff39fd6b4a52222082cbe257e1fe8ca00000000000000000000000000000000000000000000003635c9adc5dea0000000000000000000000000000000000000000000000034b824f7eb1d58ec300000",
        "nonce": "0x2c",
        "chainId": "0x2105"
      },
      "additionalContracts": [],
      "isFixedGasLimit": false
    },
    {
      "hash": "0xa22cec34faba4c877e06db99a4c3f9416f154cc50f973335a50cc6ca5c011d1b",
      "transactionType": "CALL",
      "contractName": "PerpMarket",
      "contractAddress": "0xfe326c7559c2f39b3b5195048e04bbc077ef1245",
      "function": "setRiskParams(uint256,uint256,uint256,uint256)",
      "arguments": [
        "10000000000000000000",
        "10000000000000000",
        "5000000000000000",
        "1000000000000000"
      ],
      "transaction": {
        "from": "0xc5e1d8ac5aecb1db7c04f9f7a8d7c08a8824720c",
        "to": "0xfe326c7559c2f39b3b5195048e04bbc077ef1245",
        "gas": "0xc20c",
        "value": "0x0",
        "input": "0xd7376af30000000000000000000000000000000000000000000000008ac7230489e80000000000000000000000000000000000000000000000000000002386f26fc100000000000000000000000000000000000000000000000000000011c37937e0800000000000000000000000000000000000000000000000000000038d7ea4c68000",
        "nonce": "0x2d",
        "chainId": "0x2105"
      },
      "additionalContracts": [],
      "isFixedGasLimit": false
    },
    {
      "hash": "0xda1a1e304c3c5b763b8b1bbf404275d3c4c89233ad6a62c95ee9ffd651574c30",
      "transactionType": "CALL",
      "contractName": "PerpMarket",
      "contractAddress": "0xfe326c7559c2f39b3b5195048e04bbc077ef1245",
      "function": "setGate(address,uint256)",
      "arguments": [
        "0x10feE05Ef916625FD86b2fED432e325bE897BBa3",
        "50000000000000000000000000"
      ],
      "transaction": {
        "from": "0xc5e1d8ac5aecb1db7c04f9f7a8d7c08a8824720c",
        "to": "0xfe326c7559c2f39b3b5195048e04bbc077ef1245",
        "gas": "0x17899",
        "value": "0x0",
        "input": "0x8cf20ab800000000000000000000000010fee05ef916625fd86b2fed432e325be897bba3000000000000000000000000000000000000000000295be96e64066972000000",
        "nonce": "0x2e",
        "chainId": "0x2105"
      },
      "additionalContracts": [],
      "isFixedGasLimit": false
    },
    {
      "hash": "0x517eaee7851a91bbc885655189374b8662738f600751c7e2b8d20a2b8614fedf",
      "transactionType": "CALL",
      "contractName": "PerpMarket",
      "contractAddress": "0xfe326c7559c2f39b3b5195048e04bbc077ef1245",
      "function": "setCaps(uint256,uint256)",
      "arguments": [
        "200000000000000000000",
        "2000000000000000000000"
      ],
      "transaction": {
        "from": "0xc5e1d8ac5aecb1db7c04f9f7a8d7c08a8824720c",
        "to": "0xfe326c7559c2f39b3b5195048e04bbc077ef1245",
        "gas": "0x176f5",
        "value": "0x0",
        "input": "0x212bf31600000000000000000000000000000000000000000000000ad78ebc5ac620000000000000000000000000000000000000000000000000006c6b935b8bbd400000",
        "nonce": "0x2f",
        "chainId": "0x2105"
      },
      "additionalContracts": [],
      "isFixedGasLimit": false
    },
    {
      "hash": "0x22ce66c936ab21a0e76f94edbe7adad519df2b7d7db1559ab17384eb1ddc9a7f",
      "transactionType": "CALL",
      "contractName": "PerpMarket",
      "contractAddress": "0xfe326c7559c2f39b3b5195048e04bbc077ef1245",
      "function": "setAllowlist(address,bool)",
      "arguments": [
        "0xc1CdDE11b0ed6b5fd0c0805B6B829310bbC16825",
        "true"
      ],
      "transaction": {
        "from": "0xc5e1d8ac5aecb1db7c04f9f7a8d7c08a8824720c",
        "to": "0xfe326c7559c2f39b3b5195048e04bbc077ef1245",
        "gas": "0x10231",
        "value": "0x0",
        "input": "0xb12527f8000000000000000000000000c1cdde11b0ed6b5fd0c0805b6b829310bbc168250000000000000000000000000000000000000000000000000000000000000001",
        "nonce": "0x30",
        "chainId": "0x2105"
      },
      "additionalContracts": [],
      "isFixedGasLimit": false
    },
    {
      "hash": "0x28b3c45409100748373b06ef8693aea393255cf59ee48967f49d63d650586dda",
      "transactionType": "CREATE",
      "contractName": "PythOracle",
      "contractAddress": "0x5220d1188323768c34c0d0389e5515e365dddb0c",
      "function": null,
      "arguments": [
        "0x8250f4aF4B972684F7b336503E2D6dFeDeB1487a",
        "0xef0d8b6fda2ceba41da15d4095d1da392a0d2f8ed0c6c7bc0f4cfac8c280b56d",
        "3600"
      ],
      "transaction": {
        "from": "0xc5e1d8ac5aecb1db7c04f9f7a8d7c08a8824720c",
        "to": null,
        "gas": "0x6740d",
        "value": "0x0",
        "input": "0x60e060405234801561000f575f80fd5b506040516105a43803806105a483398101604081905261002e91610047565b6001600160a01b0390921660805260a05260c052610086565b5f805f60608486031215610059575f80fd5b83516001600160a01b038116811461006f575f80fd5b602085015160409095015190969495509392505050565b60805160a05160c0516104e26100c25f395f8181608d015261012b01525f81816053015261010501525f818160bc015261015d01526104e25ff3fe608060405234801561000f575f80fd5b506004361061004a575f3560e01c8063311893341461004e578063687043c51461008857806398d5fdca146100af578063f98d06f0146100b7575b5f80fd5b6100757f000000000000000000000000000000000000000000000000000000000000000081565b6040519081526020015b60405180910390f35b6100757f000000000000000000000000000000000000000000000000000000000000000081565b6100756100f6565b6100de7f000000000000000000000000000000000000000000000000000000000000000081565b6040516001600160a01b03909116815260200161007f565b60405163052571af60e51b81527f000000000000000000000000000000000000000000000000000000000000000060048201527f000000000000000000000000000000000000000000000000000000000000000060248201525f9081906001600160a01b037f0000000000000000000000000000000000000000000000000000000000000000169063a4ae35e090604401608060405180830381865afa1580156101a2573d5f803e3d5ffd5b505050506040513d601f19601f820116820180604052508101906101c691906102a2565b90505f815f015160070b1361020d5760405162461bcd60e51b81526020600482015260096024820152684241445f505249434560b81b604482015260640160405180910390fd5b8051604082015167ffffffffffffffff909116905f906102319060030b6012610341565b90505f81126102575761024581600a61044a565b61024f908361045c565b935050505090565b61026081610473565b61026b90600a61044a565b61024f908361048d565b805167ffffffffffffffff8116811461028c575f80fd5b919050565b8051600381900b811461028c575f80fd5b5f608082840312156102b2575f80fd5b6040516080810181811067ffffffffffffffff821117156102e157634e487b7160e01b5f52604160045260245ffd5b6040528251600781900b81146102f5575f80fd5b815261030360208401610275565b602082015261031460408401610291565b6040820152606083015160608201528091505092915050565b634e487b7160e01b5f52601160045260245ffd5b8082018281125f8312801582168215821617156103605761036061032d565b505092915050565b600181815b808511156103a257815f19048211156103885761038861032d565b8085161561039557918102915b93841c939080029061036d565b509250929050565b5f826103b857506001610444565b816103c457505f610444565b81600181146103da57600281146103e457610400565b6001915050610444565b60ff8411156103f5576103f561032d565b50506001821b610444565b5060208310610133831016604e8410600b8410161715610423575081810a610444565b61042d8383610368565b805f19048211156104405761044061032d565b0290505b92915050565b5f61045583836103aa565b9392505050565b80820281158282048414176104445761044461032d565b5f600160ff1b82016104875761048761032d565b505f0390565b5f826104a757634e487b7160e01b5f52601260045260245ffd5b50049056fea2646970667358221220c968db795d8982e723100b16074086348ac0b52807683b3921e35656ae2e2c4964736f6c634300081800330000000000000000000000008250f4af4b972684f7b336503e2d6dfedeb1487aef0d8b6fda2ceba41da15d4095d1da392a0d2f8ed0c6c7bc0f4cfac8c280b56d0000000000000000000000000000000000000000000000000000000000000e10",
        "nonce": "0x31",
        "chainId": "0x2105"
      },
      "additionalContracts": [],
      "isFixedGasLimit": false
    },
    {
      "hash": "0x4ec896f51b44985a28a43b00c142abe9f774a2ce6c23e95131ab36d7bc556331",
      "transactionType": "CREATE",
      "contractName": "PerpMarket",
      "contractAddress": "0xb492dda0c1e9b98ebf0478fc28f6db65cb3b6c44",
      "function": null,
      "arguments": [
        "0x833589fCD6eDb6E08f4c7C32D4f71b54bdA02913",
        "0x5220D1188323768c34C0d0389e5515e365dDDB0c",
        "1000000000000000000000",
        "67407501250000000000000"
      ],
      "transaction": {
        "from": "0xc5e1d8ac5aecb1db7c04f9f7a8d7c08a8824720c",
        "to": null,
        "gas": "0x2b1142",
        "value": "0x0",
        "input": "0x60e06040526802b5e3af16b1880000600255662386f26fc100006003556611c37937e0800060045566038d7ea4c68000600555610e10601055600160165534801562000049575f80fd5b50604051620025a4380380620025a48339810160408190526200006c91620001f1565b5f821180156200007b57505f81115b620000bc5760405162461bcd60e51b815260206004820152600c60248201526b4241445f524553455256455360a01b60448201526064015b60405180910390fd5b5f8054336001600160a01b03199182161782556001600160a01b03868116608081905260018054909316918716919091179091556040805163313ce56760e01b8152905163313ce567916004808201926020929091908290030181865afa1580156200012a573d5f803e3d5ffd5b505050506040513d601f19601f820116820180604052508101906200015091906200023b565b905060128160ff161115620001935760405162461bcd60e51b8152602060048201526008602482015267444543494d414c5360c01b6044820152606401620000b3565b620001a081601262000278565b620001ad90600a62000393565b60a052600e839055600f829055620001c68284620003a3565b60c05250504260115550620003bd915050565b6001600160a01b0381168114620001ee575f80fd5b50565b5f805f806080858703121562000205575f80fd5b84516200021281620001d9565b60208601519094506200022581620001d9565b6040860151606090960151949790965092505050565b5f602082840312156200024c575f80fd5b815160ff811681146200025d575f80fd5b9392505050565b634e487b7160e01b5f52601160045260245ffd5b60ff828116828216039081111562000294576200029462000264565b92915050565b600181815b80851115620002da57815f1904821115620002be57620002be62000264565b80851615620002cc57918102915b93841c93908002906200029f565b509250929050565b5f82620002f25750600162000294565b816200030057505f62000294565b8160018114620003195760028114620003245762000344565b600191505062000294565b60ff84111562000338576200033862000264565b50506001821b62000294565b5060208310610133831016604e8410600b841016171562000369575081810a62000294565b6200037583836200029a565b805f19048211156200038b576200038b62000264565b029392505050565b5f6200025d60ff841683620002e2565b808202811582820484141762000294576200029462000264565b60805160a05160c0516121686200043c5f395f81816104910152818161126a0152818161130d015281816118f20152818161194301528181611d1d0152611d8f01525f81816105850152818161070901528181610c2601526115db01525f81816105300152818161081101528181610cd1015261154801526121685ff3fe608060405234801561000f575f80fd5b506004361061026b575f3560e01c8063a7cd52cb1161014b578063d468e2a9116100bf578063e03956f911610084578063e03956f914610564578063e32557311461056d578063ec0bdcfc14610580578063ed83d79c146105a7578063f2fde38b146105af578063f52b6c23146105c2575f80fd5b8063d468e2a91461050f578063d7376af314610518578063d8dfeb451461052b578063dc6638f414610552578063dfdf2a721461055b575f80fd5b8063b790230311610110578063b7902303146104c6578063b8c1b9a6146104cf578063c1af94d5146104d8578063c393d0e3146104eb578063cc4c5efb146104f3578063cfe7110314610506575f80fd5b8063a7cd52cb1461044e578063ae3302c214610470578063b12527f814610479578063b4f40c611461048c578063b6b55f25146104b3575f80fd5b80635c975abb116101e257806383acb48a116101a757806383acb48a146103ef5780638cf20ab8146103f85780638da5cb5b1461040b5780638e6feea91461041d5780639849e4121461043c5780639da771f414610445575f80fd5b80635c975abb1461039b57806360409632146103b85780637adbf973146103c05780637dc0d1d0146103d35780638120b352146103e6575f80fd5b8063321d7fa911610233578063321d7fa9146102ef5780633d385e4f146102f85780633d5333f6146103015780634ee2e2d81461031457806355f575101461033f57806358c0994a14610393575f80fd5b806316c38b3c1461026f578063212bf3161461028457806329fd9747146102975780632e1a7d4d146102c95780632f865568146102dc575b5f80fd5b61028261027d366004611df1565b6105d5565b005b610282610292366004611e13565b61064e565b6102b66102a5366004611e47565b60146020525f908152604090205481565b6040519081526020015b60405180910390f35b6102826102d7366004611e62565b6106bf565b6102826102ea366004611e47565b6108d6565b6102b660115481565b6102b660125481565b6102b661030f366004611e47565b610965565b600654610327906001600160a01b031681565b6040516001600160a01b0390911681526020016102c0565b61037361034d366004611e47565b60156020525f908152604090208054600182015460028301546003909301549192909184565b6040805194855260208501939093529183015260608201526080016102c0565b6102b6610975565b600d546103a89060ff1681565b60405190151581526020016102c0565b6102b66109e5565b6102826103ce366004611e47565b610a09565b600154610327906001600160a01b031681565b6102b660075481565b6102b660035481565b610282610406366004611e79565b610a54565b5f54610327906001600160a01b031681565b6102b661042b366004611e47565b600a6020525f908152604090205481565b6102b660105481565b6102b6600f5481565b6103a861045c366004611e47565b60086020525f908152604090205460ff1681565b6102b660025481565b610282610487366004611ea3565b610ad6565b6102b67f000000000000000000000000000000000000000000000000000000000000000081565b6102826104c1366004611e62565b610b5d565b6102b660135481565b6102b660055481565b6102b66104e6366004611e47565b610dd7565b610282610e47565b6102b6610501366004611e47565b610e80565b6102b660045481565b6102b6600c5481565b610282610526366004611eda565b610f44565b6103277f000000000000000000000000000000000000000000000000000000000000000081565b6102b6600b5481565b6102b6600e5481565b6102b660095481565b61028261057b366004611f09565b610f81565b6102b67f000000000000000000000000000000000000000000000000000000000000000081565b610282611427565b6102826105bd366004611e47565b611456565b6102826105d0366004611e62565b6114e2565b5f546001600160a01b031633146106075760405162461bcd60e51b81526004016105fe90611f3b565b60405180910390fd5b600d805460ff19168215159081179091556040519081527f40db37ff5c0bdc2c427fbb2078c8f24afea940abac0e3c23bb4ea3bf2da2b2129060200160405180910390a150565b5f546001600160a01b031633146106775760405162461bcd60e51b81526004016105fe90611f3b565b6009829055600b81905560408051838152602081018390527f9f018708d80293ae51583d43213b697a25c139d11620717f5948750937b9096791015b60405180910390a15050565b6016546001146106e15760405162461bcd60e51b81526004016105fe90611f5e565b6002601655806107035760405162461bcd60e51b81526004016105fe90611f81565b5f61072e7f000000000000000000000000000000000000000000000000000000000000000083611fb3565b335f9081526014602052604090205490915081111561077e5760405162461bcd60e51b815260206004820152600c60248201526b125394d551919250d251539560a21b60448201526064016105fe565b335f908152601460205260408120805483929061079c908490611fca565b9091555050335f908152600a60205260409020548110156107d657335f908152600a60205260409020546107d1908290611fca565b6107d8565b5f5b335f818152600a60205260409081902092909255905163a9059cbb60e01b81526004810191909152602481018390526001600160a01b037f0000000000000000000000000000000000000000000000000000000000000000169063a9059cbb906044016020604051808303815f875af1158015610857573d5f803e3d5ffd5b505050506040513d601f19601f8201168201806040525081019061087b9190611fdd565b6108975760405162461bcd60e51b81526004016105fe90611ff8565b60405182815233907f7084f5476618d8e60b11ef0d7d3f06914655adb8793e28ff7f018d4c76d505d5906020015b60405180910390a250506001601655565b6016546001146108f85760405162461bcd60e51b81526004016105fe90611f5e565b600260165561090561161d565b60035461091182611742565b126109515760405162461bcd60e51b815260206004820152601060248201526f4e4f545f4c4951554944415441424c4560801b60448201526064016105fe565b61095d81600133611827565b506001601655565b5f61096f82611742565b92915050565b60015460408051634c6afee560e11b815290515f926001600160a01b0316916398d5fdca9160048083019260209291908290030181865afa1580156109bc573d5f803e3d5ffd5b505050506040513d601f19601f820116820180604052508101906109e0919061201f565b905090565b5f600e54670de0b6b3a7640000600f546109ff9190611fb3565b6109e0919061204a565b5f546001600160a01b03163314610a325760405162461bcd60e51b81526004016105fe90611f3b565b600180546001600160a01b0319166001600160a01b0392909216919091179055565b5f546001600160a01b03163314610a7d5760405162461bcd60e51b81526004016105fe90611f3b565b600680546001600160a01b0319166001600160a01b038416908117909155600782905560408051918252602082018390527f5dfb51afdd4d85ac5ba0dd2dc3ec645d0dd275b4b8be7d8f11d999d2ead426de91016106b3565b5f546001600160a01b03163314610aff5760405162461bcd60e51b81526004016105fe90611f3b565b6001600160a01b0382165f81815260086020908152604091829020805460ff191685151590811790915591519182527fff571df7d74779bb3bc4c418144ed2539441681cec39b558e6639f5faefc0695910160405180910390a25050565b601654600114610b7f5760405162461bcd60e51b81526004016105fe90611f5e565b6002601655600d5460ff1615610bc05760405162461bcd60e51b815260206004820152600660248201526514105554d15160d21b60448201526064016105fe565b610bc933611c42565b610c015760405162461bcd60e51b81526020600482015260096024820152681393d517d1d055115160ba1b60448201526064016105fe565b5f8111610c205760405162461bcd60e51b81526004016105fe90611f81565b5f610c4b7f000000000000000000000000000000000000000000000000000000000000000083611fb3565b60095490915015610caf57600954335f908152600a6020526040902054610c7390839061205d565b1115610caf5760405162461bcd60e51b815260206004820152600b60248201526a04445504f5349545f4341560ac1b60448201526064016105fe565b6040516323b872dd60e01b8152336004820152306024820152604481018390527f00000000000000000000000000000000000000000000000000000000000000006001600160a01b0316906323b872dd906064016020604051808303815f875af1158015610d1f573d5f803e3d5ffd5b505050506040513d601f19601f82011682018060405250810190610d439190611fdd565b610d5f5760405162461bcd60e51b81526004016105fe90611ff8565b335f9081526014602052604081208054839290610d7d90849061205d565b9091555050335f908152600a602052604081208054839290610da090849061205d565b909155505060405182815233907f2da466a7b24304f47e87fa2e1e5a81b9831ce54fec19055ce277ca2f39ba42c4906020016108c5565b6001600160a01b0381165f90815260156020908152604080832081516080810183528154808252600183015494820194909452600282015492810192909252600301546060820152908203610e2e57505f92915050565b610e3f815f01518260200151611cfb565b509392505050565b601654600114610e695760405162461bcd60e51b81526004016105fe90611f5e565b6002601655610e79335f81611827565b6001601655565b6001600160a01b0381165f90815260156020908152604080832081516080810183528154808252600183015494820194909452600282015492810192909252600301546060820152908203610ed757505f92915050565b5f610ee9825f01518360200151611cfb565b5090505f670de0b6b3a76400008360600151601254610f089190612070565b8451610f149190612096565b610f1e91906120c5565b905080828460400151610f3191906120f1565b610f3b9190612070565b95945050505050565b5f546001600160a01b03163314610f6d5760405162461bcd60e51b81526004016105fe90611f3b565b600293909355600391909155600455600555565b601654600114610fa35760405162461bcd60e51b81526004016105fe90611f5e565b6002601655600d5460ff1615610fe45760405162461bcd60e51b815260206004820152600660248201526514105554d15160d21b60448201526064016105fe565b610fed33611c42565b6110255760405162461bcd60e51b81526020600482015260096024820152681393d517d1d055115160ba1b60448201526064016105fe565b335f90815260156020526040902054156110735760405162461bcd60e51b815260206004820152600f60248201526e504f534954494f4e5f45584953545360881b60448201526064016105fe565b5f8111801561108457506002548111155b6110bf5760405162461bcd60e51b815260206004820152600c60248201526b4241445f4c4556455241474560a01b60448201526064016105fe565b5f821180156110dc5750335f908152601460205260409020548211155b61111e5760405162461bcd60e51b815260206004820152601360248201527224a729aaa32324a1a4a2a72a2fa6a0a923a4a760691b60448201526064016105fe565b61112661161d565b5f670de0b6b3a764000061113a8385611fb3565b611144919061204a565b90505f670de0b6b3a76400006005548361115e9190611fb3565b611168919061204a565b90508084116111a95760405162461bcd60e51b815260206004820152600d60248201526c4d415247494e5f4c545f46454560981b60448201526064016105fe565b600b54156111f957600b5482600c546111c2919061205d565b11156111f95760405162461bcd60e51b815260206004820152600660248201526504f495f4341560d41b60448201526064016105fe565b81600c5f82825461120a919061205d565b9091555050335f908152601460205260408120805486929061122d908490611fca565b925050819055508060135f828254611245919061205d565b909155505f905085156112b1575f83600f54611261919061205d565b90505f61128e827f000000000000000000000000000000000000000000000000000000000000000061204a565b905080600e5461129e9190611fca565b600e91909155600f919091559050611359565b600f5483106112f55760405162461bcd60e51b815260206004820152601060248201526f4e4f54494f4e414c5f544f4f5f42494760801b60448201526064016105fe565b5f83600f546113049190611fca565b90505f611331827f000000000000000000000000000000000000000000000000000000000000000061204a565b9050600e54816113419190611fca565b61134a90612118565b600e91909155600f9190915590505b6040518060800160405280828152602001848152602001838761137c9190611fca565b8152601254602091820152335f818152601583526040908190208451815592840151600184015583015160028301556060909201516003909101557f5636e8dea455ae62de0f90686da32f70a633e56f436b84ab6298a2f50727b697876113e38589611fca565b86856113ed6109e5565b6040805195151586526020860194909452928401919091526060830152608082015260a00160405180910390a25050600160165550505050565b6016546001146114495760405162461bcd60e51b81526004016105fe90611f5e565b6002601655610e7961161d565b5f546001600160a01b0316331461147f5760405162461bcd60e51b81526004016105fe90611f3b565b6001600160a01b0381166114c15760405162461bcd60e51b81526020600482015260096024820152682d22a927afa0a2222960b91b60448201526064016105fe565b5f80546001600160a01b0319166001600160a01b0392909216919091179055565b6016546001146115045760405162461bcd60e51b81526004016105fe90611f5e565b6002601655806115265760405162461bcd60e51b81526004016105fe90611f81565b6040516323b872dd60e01b8152336004820152306024820152604481018290527f00000000000000000000000000000000000000000000000000000000000000006001600160a01b0316906323b872dd906064016020604051808303815f875af1158015611596573d5f803e3d5ffd5b505050506040513d601f19601f820116820180604052508101906115ba9190611fdd565b6115d65760405162461bcd60e51b81526004016105fe90611ff8565b6116007f000000000000000000000000000000000000000000000000000000000000000082611fb3565b60135f828254611610919061205d565b9091555050600160165550565b5f6011544261162c9190611fca565b9050805f036116385750565b60015460408051634c6afee560e11b815290515f926001600160a01b0316916398d5fdca9160048083019260209291908290030181865afa15801561167f573d5f803e3d5ffd5b505050506040513d601f19601f820116820180604052508101906116a3919061201f565b90505f6116ae6109e5565b90505f6010548484846116c19190612070565b6116cb9190612096565b6116d591906120c5565b90508060125f8282546116e891906120f1565b9091555050426011556012546040805183815260208101929092528101839052606081018490527f6bb55e027745809a746c220e2e865d1f2ab4407602ceac1d79e45f2991e94bb99060800160405180910390a150505050565b6001600160a01b0381165f908152601560209081526040808320815160808101835281548082526001830154948201949094526002820154928101929092526003015460608201529082036117a057506001600160ff1b0392915050565b5f80825f0151136117bb5781516117b690612118565b6117be565b81515b90505f670de0b6b3a76400006117d26109e5565b6117dc9084611fb3565b6117e6919061204a565b9050805f0361180057506001600160ff1b03949350505050565b80670de0b6b3a764000061181387610e80565b61181d9190612096565b610f3b91906120c5565b6001600160a01b0383165f9081526015602090815260408083208151608081018352815480825260018301549482019490945260028201549281019290925260030154606082015291036118ab5760405162461bcd60e51b815260206004820152600b60248201526a2727afa827a9a4aa24a7a760a91b60448201526064016105fe565b826118b8576118b861161d565b5f806118cb835f01518460200151611cfb565b915091505f835f01511315611921578251600e545f916118ea9161205d565b9050611916817f000000000000000000000000000000000000000000000000000000000000000061204a565b600f55600e5561196e565b82515f9061192e90612118565b600e5461193b9190611fca565b9050611967817f000000000000000000000000000000000000000000000000000000000000000061204a565b600f55600e555b600c5483602001511015611993578260200151600c5461198e9190611fca565b611995565b5f5b600c5560608301516012545f91670de0b6b3a7640000916119b69190612070565b85516119c29190612096565b6119cc91906120c5565b90505f670de0b6b3a7640000600554846119e69190611fb3565b6119f0919061204a565b90508060135f828254611a03919061205d565b925050819055505f8183868860400151611a1d91906120f1565b611a279190612070565b611a319190612070565b6001600160a01b038a165f9081526015602052604081208181556001810182905560028101829055600301819055909150808213611a6f575f611a71565b815b90508815611b72575f670de0b6b3a764000060045487611a919190611fb3565b611a9b919061204a565b905081811115611aa85750805b6001600160a01b0389165f9081526014602052604081208054839290611acf90849061205d565b909155505f9050611ae08284611fca565b90508015611b15576001600160a01b038c165f9081526014602052604081208054839290611b0f90849061205d565b90915550505b896001600160a01b03168c6001600160a01b03167f20d0566d549d90c3d4381e5bde3839869444441a7d232674f39ca899467b39528487604051611b63929190918252602082015260400190565b60405180910390a35050611ba5565b8015611ba5576001600160a01b038a165f9081526014602052604081208054839290611b9f90849061205d565b90915550505b5f821215611be3575f611bb783612118565b90506013548111611bc85780611bcc565b6013545b60135f828254611bdc9190611fca565b9091555050505b896001600160a01b03167fbee50dd183e10945359b0125cf83af4d2ba9fd825c2c68bf50052640a6b311fc8786611c186109e5565b6040805193845260208401929092529082015260600160405180910390a250505050505050505050565b6006545f906001600160a01b0316611c5c57506001919050565b6001600160a01b0382165f9081526008602052604090205460ff1615611c8457506001919050565b6007546006546040516370a0823160e01b81526001600160a01b038581166004830152909116906370a0823190602401602060405180830381865afa158015611ccf573d5f803e3d5ffd5b505050506040513d601f19601f82011682018060405250810190611cf3919061201f565b101592915050565b5f805f841315611d6b575f84600e54611d14919061205d565b90505f611d41827f000000000000000000000000000000000000000000000000000000000000000061204a565b90505f81600f54611d529190611fca565b9350839050611d618682612070565b9450505050611dda565b5f611d7585612118565b90505f81600e54611d869190611fca565b90505f611db3827f000000000000000000000000000000000000000000000000000000000000000061204a565b90505f600f5482611dc49190611fca565b9450849050611dd38188612070565b9550505050505b9250929050565b8015158114611dee575f80fd5b50565b5f60208284031215611e01575f80fd5b8135611e0c81611de1565b9392505050565b5f8060408385031215611e24575f80fd5b50508035926020909101359150565b6001600160a01b0381168114611dee575f80fd5b5f60208284031215611e57575f80fd5b8135611e0c81611e33565b5f60208284031215611e72575f80fd5b5035919050565b5f8060408385031215611e8a575f80fd5b8235611e9581611e33565b946020939093013593505050565b5f8060408385031215611eb4575f80fd5b8235611ebf81611e33565b91506020830135611ecf81611de1565b809150509250929050565b5f805f8060808587031215611eed575f80fd5b5050823594602084013594506040840135936060013592509050565b5f805f60608486031215611f1b575f80fd5b8335611f2681611de1565b95602085013595506040909401359392505050565b6020808252600990820152682727aa2fa7aba722a960b91b604082015260600190565b60208082526009908201526814915153951490539560ba1b604082015260600190565b6020808252600490820152635a45524f60e01b604082015260600190565b634e487b7160e01b5f52601160045260245ffd5b808202811582820484141761096f5761096f611f9f565b8181038181111561096f5761096f611f9f565b5f60208284031215611fed575f80fd5b8151611e0c81611de1565b6020808252600d908201526c1514905394d1915497d1905253609a1b604082015260600190565b5f6020828403121561202f575f80fd5b5051919050565b634e487b7160e01b5f52601260045260245ffd5b5f8261205857612058612036565b500490565b8082018082111561096f5761096f611f9f565b8181035f83128015838313168383128216171561208f5761208f611f9f565b5092915050565b8082025f8212600160ff1b841416156120b1576120b1611f9f565b818105831482151761096f5761096f611f9f565b5f826120d3576120d3612036565b600160ff1b82145f19841416156120ec576120ec611f9f565b500590565b8082018281125f83128015821682158216171561211057612110611f9f565b505092915050565b5f600160ff1b820161212c5761212c611f9f565b505f039056fea26469706673582212205f6b57c0bd033726c234b0b3e6e6092aebaf898a75e3875de87b63095693c46d64736f6c63430008180033000000000000000000000000833589fcd6edb6e08f4c7c32d4f71b54bda029130000000000000000000000005220d1188323768c34c0d0389e5515e365dddb0c00000000000000000000000000000000000000000000003635c9adc5dea00000000000000000000000000000000000000000000000000e462affbea085862000",
        "nonce": "0x32",
        "chainId": "0x2105"
      },
      "additionalContracts": [],
      "isFixedGasLimit": false
    },
    {
      "hash": "0xd21692fd7284e38f358d565b18e590ef95447f262242371464162d8a06d27c22",
      "transactionType": "CALL",
      "contractName": "PerpMarket",
      "contractAddress": "0xb492dda0c1e9b98ebf0478fc28f6db65cb3b6c44",
      "function": "setRiskParams(uint256,uint256,uint256,uint256)",
      "arguments": [
        "10000000000000000000",
        "10000000000000000",
        "5000000000000000",
        "1000000000000000"
      ],
      "transaction": {
        "from": "0xc5e1d8ac5aecb1db7c04f9f7a8d7c08a8824720c",
        "to": "0xb492dda0c1e9b98ebf0478fc28f6db65cb3b6c44",
        "gas": "0xc20c",
        "value": "0x0",
        "input": "0xd7376af30000000000000000000000000000000000000000000000008ac7230489e80000000000000000000000000000000000000000000000000000002386f26fc100000000000000000000000000000000000000000000000000000011c37937e0800000000000000000000000000000000000000000000000000000038d7ea4c68000",
        "nonce": "0x33",
        "chainId": "0x2105"
      },
      "additionalContracts": [],
      "isFixedGasLimit": false
    },
    {
      "hash": "0x9d333d41f2916d5f9f38596be814d4099d44dced71f6426f873fe4b90a57203d",
      "transactionType": "CALL",
      "contractName": "PerpMarket",
      "contractAddress": "0xb492dda0c1e9b98ebf0478fc28f6db65cb3b6c44",
      "function": "setGate(address,uint256)",
      "arguments": [
        "0x10feE05Ef916625FD86b2fED432e325bE897BBa3",
        "50000000000000000000000000"
      ],
      "transaction": {
        "from": "0xc5e1d8ac5aecb1db7c04f9f7a8d7c08a8824720c",
        "to": "0xb492dda0c1e9b98ebf0478fc28f6db65cb3b6c44",
        "gas": "0x17899",
        "value": "0x0",
        "input": "0x8cf20ab800000000000000000000000010fee05ef916625fd86b2fed432e325be897bba3000000000000000000000000000000000000000000295be96e64066972000000",
        "nonce": "0x34",
        "chainId": "0x2105"
      },
      "additionalContracts": [],
      "isFixedGasLimit": false
    },
    {
      "hash": "0x04a450f24091d2cb8c9c7a480036ab5764a4fbe36d720e8c4251ef10fadc7765",
      "transactionType": "CALL",
      "contractName": "PerpMarket",
      "contractAddress": "0xb492dda0c1e9b98ebf0478fc28f6db65cb3b6c44",
      "function": "setCaps(uint256,uint256)",
      "arguments": [
        "200000000000000000000",
        "2000000000000000000000"
      ],
      "transaction": {
        "from": "0xc5e1d8ac5aecb1db7c04f9f7a8d7c08a8824720c",
        "to": "0xb492dda0c1e9b98ebf0478fc28f6db65cb3b6c44",
        "gas": "0x176f5",
        "value": "0x0",
        "input": "0x212bf31600000000000000000000000000000000000000000000000ad78ebc5ac620000000000000000000000000000000000000000000000000006c6b935b8bbd400000",
        "nonce": "0x35",
        "chainId": "0x2105"
      },
      "additionalContracts": [],
      "isFixedGasLimit": false
    },
    {
      "hash": "0x8edeebb490bad4cc846a640341d1db47354da90c547301dc8659edc23d29b5e8",
      "transactionType": "CALL",
      "contractName": "PerpMarket",
      "contractAddress": "0xb492dda0c1e9b98ebf0478fc28f6db65cb3b6c44",
      "function": "setAllowlist(address,bool)",
      "arguments": [
        "0xc1CdDE11b0ed6b5fd0c0805B6B829310bbC16825",
        "true"
      ],
      "transaction": {
        "from": "0xc5e1d8ac5aecb1db7c04f9f7a8d7c08a8824720c",
        "to": "0xb492dda0c1e9b98ebf0478fc28f6db65cb3b6c44",
        "gas": "0x10231",
        "value": "0x0",
        "input": "0xb12527f8000000000000000000000000c1cdde11b0ed6b5fd0c0805b6b829310bbc168250000000000000000000000000000000000000000000000000000000000000001",
        "nonce": "0x36",
        "chainId": "0x2105"
      },
      "additionalContracts": [],
      "isFixedGasLimit": false
    }
  ],
  "receipts": [
    {
      "type": "0x2",
      "status": "0x1",
      "cumulativeGasUsed": "0xbaba35",
      "logs": [],
      "logsBloom": "0x00000000000000000000000000000000000000000000000000000000000000000000000000000000000000000000000000000000000000000000000000000000000000000000000000000000000000000000000000000000000000000000000000000000000000000000000000000000000000000000000000000000000000000000000000000000000000000000000000000000000000000000000000000000000000000000000000000000000000000000000000000000000000000000000000000000000000000000000000000000000000000000000000000000000000000000000000000000000000000000000000000000000000000000000000000000",
      "transactionHash": "0x849d4ff893f40684dcb131671510368f8d10a595571d70121274f0a4e04a03dd",
      "transactionIndex": "0x67",
      "blockHash": "0xfe5f71b8e3aacf0fbfcfa766cbdaf7b5025d0ecd31147a9f69a4d413870b76fb",
      "blockNumber": "0x2d24dd3",
      "gasUsed": "0x4f6cf",
      "effectiveGasPrice": "0x53ec7b",
      "blobGasUsed": "0x23ea8",
      "from": "0xc5e1d8ac5aecb1db7c04f9f7a8d7c08a8824720c",
      "to": null,
      "contractAddress": "0xcd749d672ff39fd6b4a52222082cbe257e1fe8ca",
      "l1GasPrice": "0x4dcd0b7",
      "l1GasUsed": "0x3e2a",
      "l1Fee": "0x1cd6f6393",
      "l1BaseFeeScalar": "0x8dd",
      "l1BlobBaseFee": "0x45aeb5",
      "l1BlobBaseFeeScalar": "0x101c12",
      "daFootprintGasScalar": "0x94"
    },
    {
      "type": "0x2",
      "status": "0x1",
      "cumulativeGasUsed": "0xe1d84a",
      "logs": [],
      "logsBloom": "0x00000000000000000000000000000000000000000000000000000000000000000000000000000000000000000000000000000000000000000000000000000000000000000000000000000000000000000000000000000000000000000000000000000000000000000000000000000000000000000000000000000000000000000000000000000000000000000000000000000000000000000000000000000000000000000000000000000000000000000000000000000000000000000000000000000000000000000000000000000000000000000000000000000000000000000000000000000000000000000000000000000000000000000000000000000000",
      "transactionHash": "0x517eaee7851a91bbc885655189374b8662738f600751c7e2b8d20a2b8614fedf",
      "transactionIndex": "0x6d",
      "blockHash": "0xfe5f71b8e3aacf0fbfcfa766cbdaf7b5025d0ecd31147a9f69a4d413870b76fb",
      "blockNumber": "0x2d24dd3",
      "gasUsed": "0x2120f8",
      "effectiveGasPrice": "0x53ec7b",
      "blobGasUsed": "0xb7034",
      "from": "0xc5e1d8ac5aecb1db7c04f9f7a8d7c08a8824720c",
      "to": null,
      "contractAddress": "0xfe326c7559c2f39b3b5195048e04bbc077ef1245",
      "l1GasPrice": "0x4dcd0b7",
      "l1GasUsed": "0x13c91",
      "l1Fee": "0x92db893d8",
      "l1BaseFeeScalar": "0x8dd",
      "l1BlobBaseFee": "0x45aeb5",
      "l1BlobBaseFeeScalar": "0x101c12",
      "daFootprintGasScalar": "0x94"
    },
    {
      "type": "0x2",
      "status": "0x1",
      "cumulativeGasUsed": "0xe264c8",
      "logs": [],
      "logsBloom": "0x00000000000000000000000000000000000000000000000000000000000000000000000000000000000000000000000000000000000000000000000000000000000000000000000000000000000000000000000000000000000000000000000000000000000000000000000000000000000000000000000000000000000000000000000000000000000000000000000000000000000000000000000000000000000000000000000000000000000000000000000000000000000000000000000000000000000000000000000000000000000000000000000000000000000000000000000000000000000000000000000000000000000000000000000000000000",
      "transactionHash": "0x4ec896f51b44985a28a43b00c142abe9f774a2ce6c23e95131ab36d7bc556331",
      "transactionIndex": "0x6e",
      "blockHash": "0xfe5f71b8e3aacf0fbfcfa766cbdaf7b5025d0ecd31147a9f69a4d413870b76fb",
      "blockNumber": "0x2d24dd3",
      "gasUsed": "0x8c7e",
      "effectiveGasPrice": "0x53ec7b",
      "blobGasUsed": "0x39d0",
      "from": "0xc5e1d8ac5aecb1db7c04f9f7a8d7c08a8824720c",
      "to": "0xfe326c7559c2f39b3b5195048e04bbc077ef1245",
      "contractAddress": null,
      "l1GasPrice": "0x4dcd0b7",
      "l1GasUsed": "0x640",
      "l1Fee": "0x2e63fc53",
      "l1BaseFeeScalar": "0x8dd",
      "l1BlobBaseFee": "0x45aeb5",
      "l1BlobBaseFeeScalar": "0x101c12",
      "daFootprintGasScalar": "0x94"
    },
    {
      "type": "0x2",
      "status": "0x1",
      "cumulativeGasUsed": "0xe3756f",
      "logs": [
        {
          "address": "0xfe326c7559c2f39b3b5195048e04bbc077ef1245",
          "topics": [
            "0x5dfb51afdd4d85ac5ba0dd2dc3ec645d0dd275b4b8be7d8f11d999d2ead426de"
          ],
          "data": "0x00000000000000000000000010fee05ef916625fd86b2fed432e325be897bba3000000000000000000000000000000000000000000295be96e64066972000000",
          "blockHash": "0xfe5f71b8e3aacf0fbfcfa766cbdaf7b5025d0ecd31147a9f69a4d413870b76fb",
          "blockNumber": "0x2d24dd3",
          "blockTimestamp": "0x6a2ef889",
          "transactionHash": "0xa22cec34faba4c877e06db99a4c3f9416f154cc50f973335a50cc6ca5c011d1b",
          "transactionIndex": "0x6f",
          "logIndex": "0x137",
          "removed": false
        }
      ],
      "logsBloom": "0x00000000000000000000000000000000000000000000000000000000000000000000000000000000000000000000001000000000000000000000000000000000000000000000000000000000000000000000000000000000000000000000000000000000000000000000000000000000003000000000000000100000000000000000000000000000000000000000000000000000000000000000000000000000000000000000000000000000000000000000000000000000000000000000000000000010000000000000000000000000000000000000000000000000000000008000000000000000000000000000000000000000000000000000000000000000",
      "transactionHash": "0xa22cec34faba4c877e06db99a4c3f9416f154cc50f973335a50cc6ca5c011d1b",
      "transactionIndex": "0x6f",
      "blockHash": "0xfe5f71b8e3aacf0fbfcfa766cbdaf7b5025d0ecd31147a9f69a4d413870b76fb",
      "blockNumber": "0x2d24dd3",
      "gasUsed": "0x110a7",
      "effectiveGasPrice": "0x53ec7b",
      "blobGasUsed": "0x39d0",
      "from": "0xc5e1d8ac5aecb1db7c04f9f7a8d7c08a8824720c",
      "to": "0xfe326c7559c2f39b3b5195048e04bbc077ef1245",
      "contractAddress": null,
      "l1GasPrice": "0x4dcd0b7",
      "l1GasUsed": "0x640",
      "l1Fee": "0x2e63fc53",
      "l1BaseFeeScalar": "0x8dd",
      "l1BlobBaseFee": "0x45aeb5",
      "l1BlobBaseFeeScalar": "0x101c12",
      "daFootprintGasScalar": "0x94"
    },
    {
      "type": "0x2",
      "status": "0x1",
      "cumulativeGasUsed": "0xe484e6",
      "logs": [
        {
          "address": "0xfe326c7559c2f39b3b5195048e04bbc077ef1245",
          "topics": [
            "0x9f018708d80293ae51583d43213b697a25c139d11620717f5948750937b90967"
          ],
          "data": "0x00000000000000000000000000000000000000000000000ad78ebc5ac620000000000000000000000000000000000000000000000000006c6b935b8bbd400000",
          "blockHash": "0xfe5f71b8e3aacf0fbfcfa766cbdaf7b5025d0ecd31147a9f69a4d413870b76fb",
          "blockNumber": "0x2d24dd3",
          "blockTimestamp": "0x6a2ef889",
          "transactionHash": "0x9d333d41f2916d5f9f38596be814d4099d44dced71f6426f873fe4b90a57203d",
          "transactionIndex": "0x70",
          "logIndex": "0x138",
          "removed": false
        }
      ],
      "logsBloom": "0x00000000000000000000000000000000000000000000000000000000000000000000000000000000000000000000001000000000000000010000000000000000000000000000000000000000000000000000000000000000000000000000000000000000000000000000000000000000002000000000000000000000000000004000000000000000000000000000000000000800000000000000000000000000000000000000000000000000000000000000000000000000000000000000000000000000000000000000000000000000000000000000000000000000000000008000000000000000000000000000000000000000000000000000000000000000",
      "transactionHash": "0x9d333d41f2916d5f9f38596be814d4099d44dced71f6426f873fe4b90a57203d",
      "transactionIndex": "0x70",
      "blockHash": "0xfe5f71b8e3aacf0fbfcfa766cbdaf7b5025d0ecd31147a9f69a4d413870b76fb",
      "blockNumber": "0x2d24dd3",
      "gasUsed": "0x10f77",
      "effectiveGasPrice": "0x53ec7b",
      "blobGasUsed": "0x39d0",
      "from": "0xc5e1d8ac5aecb1db7c04f9f7a8d7c08a8824720c",
      "to": "0xfe326c7559c2f39b3b5195048e04bbc077ef1245",
      "contractAddress": null,
      "l1GasPrice": "0x4dcd0b7",
      "l1GasUsed": "0x640",
      "l1Fee": "0x2e63fc53",
      "l1BaseFeeScalar": "0x8dd",
      "l1BlobBaseFee": "0x45aeb5",
      "l1BlobBaseFeeScalar": "0x101c12",
      "daFootprintGasScalar": "0x94"
    },
    {
      "type": "0x2",
      "status": "0x1",
      "cumulativeGasUsed": "0xe53fd4",
      "logs": [
        {
          "address": "0xfe326c7559c2f39b3b5195048e04bbc077ef1245",
          "topics": [
            "0xff571df7d74779bb3bc4c418144ed2539441681cec39b558e6639f5faefc0695",
            "0x000000000000000000000000c1cdde11b0ed6b5fd0c0805b6b829310bbc16825"
          ],
          "data": "0x0000000000000000000000000000000000000000000000000000000000000001",
          "blockHash": "0xfe5f71b8e3aacf0fbfcfa766cbdaf7b5025d0ecd31147a9f69a4d413870b76fb",
          "blockNumber": "0x2d24dd3",
          "blockTimestamp": "0x6a2ef889",
          "transactionHash": "0x04a450f24091d2cb8c9c7a480036ab5764a4fbe36d720e8c4251ef10fadc7765",
          "transactionIndex": "0x71",
          "logIndex": "0x139",
          "removed": false
        }
      ],
      "logsBloom": "0x00000000000000000000000000000000000000000000000000000000000000000000000000000000000000000004001000000000000000000008000000000000000000000040000002000002000000000000000000000000000000000000000000000000000000000000000000000000002000000000080000000000000000000000000000000000000000000000000000000000000000000000000000000000000000000000000000000000000000000000000000000000000000000000000000000000000000000000000000000000000000000000000000000000000000008000000000000000000000000000000000000000000000000000000000000000",
      "transactionHash": "0x04a450f24091d2cb8c9c7a480036ab5764a4fbe36d720e8c4251ef10fadc7765",
      "transactionIndex": "0x71",
      "blockHash": "0xfe5f71b8e3aacf0fbfcfa766cbdaf7b5025d0ecd31147a9f69a4d413870b76fb",
      "blockNumber": "0x2d24dd3",
      "gasUsed": "0xbaee",
      "effectiveGasPrice": "0x53ec7b",
      "blobGasUsed": "0x39d0",
      "from": "0xc5e1d8ac5aecb1db7c04f9f7a8d7c08a8824720c",
      "to": "0xfe326c7559c2f39b3b5195048e04bbc077ef1245",
      "contractAddress": null,
      "l1GasPrice": "0x4dcd0b7",
      "l1GasUsed": "0x640",
      "l1Fee": "0x2e63fc53",
      "l1BaseFeeScalar": "0x8dd",
      "l1BlobBaseFee": "0x45aeb5",
      "l1BlobBaseFeeScalar": "0x101c12",
      "daFootprintGasScalar": "0x94"
    },
    {
      "type": "0x2",
      "status": "0x1",
      "cumulativeGasUsed": "0xea36a3",
      "logs": [],
      "logsBloom": "0x00000000000000000000000000000000000000000000000000000000000000000000000000000000000000000000000000000000000000000000000000000000000000000000000000000000000000000000000000000000000000000000000000000000000000000000000000000000000000000000000000000000000000000000000000000000000000000000000000000000000000000000000000000000000000000000000000000000000000000000000000000000000000000000000000000000000000000000000000000000000000000000000000000000000000000000000000000000000000000000000000000000000000000000000000000000",
      "transactionHash": "0x861127d66dc4aa6fea4d44e2196c6fbb1c15afee9e141a88d7da4712b33c1e9e",
      "transactionIndex": "0x72",
      "blockHash": "0xfe5f71b8e3aacf0fbfcfa766cbdaf7b5025d0ecd31147a9f69a4d413870b76fb",
      "blockNumber": "0x2d24dd3",
      "gasUsed": "0x4f6cf",
      "effectiveGasPrice": "0x53ec7b",
      "blobGasUsed": "0x23ea8",
      "from": "0xc5e1d8ac5aecb1db7c04f9f7a8d7c08a8824720c",
      "to": null,
      "contractAddress": "0x5220d1188323768c34c0d0389e5515e365dddb0c",
      "l1GasPrice": "0x4dcd0b7",
      "l1GasUsed": "0x3e2a",
      "l1Fee": "0x1cd6f6393",
      "l1BaseFeeScalar": "0x8dd",
      "l1BlobBaseFee": "0x45aeb5",
      "l1BlobBaseFeeScalar": "0x101c12",
      "daFootprintGasScalar": "0x94"
    },
    {
      "type": "0x2",
      "status": "0x1",
      "cumulativeGasUsed": "0x10b579b",
      "logs": [],
      "logsBloom": "0x00000000000000000000000000000000000000000000000000000000000000000000000000000000000000000000000000000000000000000000000000000000000000000000000000000000000000000000000000000000000000000000000000000000000000000000000000000000000000000000000000000000000000000000000000000000000000000000000000000000000000000000000000000000000000000000000000000000000000000000000000000000000000000000000000000000000000000000000000000000000000000000000000000000000000000000000000000000000000000000000000000000000000000000000000000000",
      "transactionHash": "0xd21692fd7284e38f358d565b18e590ef95447f262242371464162d8a06d27c22",
      "transactionIndex": "0x73",
      "blockHash": "0xfe5f71b8e3aacf0fbfcfa766cbdaf7b5025d0ecd31147a9f69a4d413870b76fb",
      "blockNumber": "0x2d24dd3",
      "gasUsed": "0x2120f8",
      "effectiveGasPrice": "0x53ec7b",
      "blobGasUsed": "0xb6fa0",
      "from": "0xc5e1d8ac5aecb1db7c04f9f7a8d7c08a8824720c",
      "to": null,
      "contractAddress": "0xb492dda0c1e9b98ebf0478fc28f6db65cb3b6c44",
      "l1GasPrice": "0x4dcd0b7",
      "l1GasUsed": "0x13c83",
      "l1Fee": "0x92d553c22",
      "l1BaseFeeScalar": "0x8dd",
      "l1BlobBaseFee": "0x45aeb5",
      "l1BlobBaseFeeScalar": "0x101c12",
      "daFootprintGasScalar": "0x94"
    },
    {
      "type": "0x2",
      "status": "0x1",
      "cumulativeGasUsed": "0x10be419",
      "logs": [],
      "logsBloom": "0x00000000000000000000000000000000000000000000000000000000000000000000000000000000000000000000000000000000000000000000000000000000000000000000000000000000000000000000000000000000000000000000000000000000000000000000000000000000000000000000000000000000000000000000000000000000000000000000000000000000000000000000000000000000000000000000000000000000000000000000000000000000000000000000000000000000000000000000000000000000000000000000000000000000000000000000000000000000000000000000000000000000000000000000000000000000",
      "transactionHash": "0xda1a1e304c3c5b763b8b1bbf404275d3c4c89233ad6a62c95ee9ffd651574c30",
      "transactionIndex": "0x74",
      "blockHash": "0xfe5f71b8e3aacf0fbfcfa766cbdaf7b5025d0ecd31147a9f69a4d413870b76fb",
      "blockNumber": "0x2d24dd3",
      "gasUsed": "0x8c7e",
      "effectiveGasPrice": "0x53ec7b",
      "blobGasUsed": "0x39d0",
      "from": "0xc5e1d8ac5aecb1db7c04f9f7a8d7c08a8824720c",
      "to": "0xb492dda0c1e9b98ebf0478fc28f6db65cb3b6c44",
      "contractAddress": null,
      "l1GasPrice": "0x4dcd0b7",
      "l1GasUsed": "0x640",
      "l1Fee": "0x2e63fc53",
      "l1BaseFeeScalar": "0x8dd",
      "l1BlobBaseFee": "0x45aeb5",
      "l1BlobBaseFeeScalar": "0x101c12",
      "daFootprintGasScalar": "0x94"
    },
    {
      "type": "0x2",
      "status": "0x1",
      "cumulativeGasUsed": "0x10cf4c0",
      "logs": [
        {
          "address": "0xb492dda0c1e9b98ebf0478fc28f6db65cb3b6c44",
          "topics": [
            "0x5dfb51afdd4d85ac5ba0dd2dc3ec645d0dd275b4b8be7d8f11d999d2ead426de"
          ],
          "data": "0x00000000000000000000000010fee05ef916625fd86b2fed432e325be897bba3000000000000000000000000000000000000000000295be96e64066972000000",
          "blockHash": "0xfe5f71b8e3aacf0fbfcfa766cbdaf7b5025d0ecd31147a9f69a4d413870b76fb",
          "blockNumber": "0x2d24dd3",
          "blockTimestamp": "0x6a2ef889",
          "transactionHash": "0x8edeebb490bad4cc846a640341d1db47354da90c547301dc8659edc23d29b5e8",
          "transactionIndex": "0x75",
          "logIndex": "0x13a",
          "removed": false
        }
      ],
      "logsBloom": "0x00000000000000000000000000000000000000000000000000000000000000000000000000000000000000000000000000000000000000000000000000000000000000000000000000000000000000000000000008000000000000000000000000000000000000000000000000000000001000000000000000100000000000000000000000000000000000000000000000000000000000000000000000000000000000000000000000000000000000000000000000000000000000000000000000000010000000000000000000000000000000000000000000002000000000000000000000000000000000000000100000000000000000000000000000000000",
      "transactionHash": "0x8edeebb490bad4cc846a640341d1db47354da90c547301dc8659edc23d29b5e8",
      "transactionIndex": "0x75",
      "blockHash": "0xfe5f71b8e3aacf0fbfcfa766cbdaf7b5025d0ecd31147a9f69a4d413870b76fb",
      "blockNumber": "0x2d24dd3",
      "gasUsed": "0x110a7",
      "effectiveGasPrice": "0x53ec7b",
      "blobGasUsed": "0x39d0",
      "from": "0xc5e1d8ac5aecb1db7c04f9f7a8d7c08a8824720c",
      "to": "0xb492dda0c1e9b98ebf0478fc28f6db65cb3b6c44",
      "contractAddress": null,
      "l1GasPrice": "0x4dcd0b7",
      "l1GasUsed": "0x640",
      "l1Fee": "0x2e63fc53",
      "l1BaseFeeScalar": "0x8dd",
      "l1BlobBaseFee": "0x45aeb5",
      "l1BlobBaseFeeScalar": "0x101c12",
      "daFootprintGasScalar": "0x94"
    },
    {
      "type": "0x2",
      "status": "0x1",
      "cumulativeGasUsed": "0x10e0437",
      "logs": [
        {
          "address": "0xb492dda0c1e9b98ebf0478fc28f6db65cb3b6c44",
          "topics": [
            "0x9f018708d80293ae51583d43213b697a25c139d11620717f5948750937b90967"
          ],
          "data": "0x00000000000000000000000000000000000000000000000ad78ebc5ac620000000000000000000000000000000000000000000000000006c6b935b8bbd400000",
          "blockHash": "0xfe5f71b8e3aacf0fbfcfa766cbdaf7b5025d0ecd31147a9f69a4d413870b76fb",
          "blockNumber": "0x2d24dd3",
          "blockTimestamp": "0x6a2ef889",
          "transactionHash": "0x22ce66c936ab21a0e76f94edbe7adad519df2b7d7db1559ab17384eb1ddc9a7f",
          "transactionIndex": "0x76",
          "logIndex": "0x13b",
          "removed": false
        }
      ],
      "logsBloom": "0x00000000000000000000000000000000000000000000000000000000000000000000000000000000000000000000000000000000000000010000000000000000000000000000000000000000000000000000000008000000000000000000000000000000000000000000000000000000000000000000000000000000000000004000000000000000000000000000000000000800000000000000000000000000000000000000000000000000000000000000000000000000000000000000000000000000000000000000000000000000000000000000000000002000000000000000000000000000000000000000100000000000000000000000000000000000",
      "transactionHash": "0x22ce66c936ab21a0e76f94edbe7adad519df2b7d7db1559ab17384eb1ddc9a7f",
      "transactionIndex": "0x76",
      "blockHash": "0xfe5f71b8e3aacf0fbfcfa766cbdaf7b5025d0ecd31147a9f69a4d413870b76fb",
      "blockNumber": "0x2d24dd3",
      "gasUsed": "0x10f77",
      "effectiveGasPrice": "0x53ec7b",
      "blobGasUsed": "0x39d0",
      "from": "0xc5e1d8ac5aecb1db7c04f9f7a8d7c08a8824720c",
      "to": "0xb492dda0c1e9b98ebf0478fc28f6db65cb3b6c44",
      "contractAddress": null,
      "l1GasPrice": "0x4dcd0b7",
      "l1GasUsed": "0x640",
      "l1Fee": "0x2e63fc53",
      "l1BaseFeeScalar": "0x8dd",
      "l1BlobBaseFee": "0x45aeb5",
      "l1BlobBaseFeeScalar": "0x101c12",
      "daFootprintGasScalar": "0x94"
    },
    {
      "type": "0x2",
      "status": "0x1",
      "cumulativeGasUsed": "0x10ebf25",
      "logs": [
        {
          "address": "0xb492dda0c1e9b98ebf0478fc28f6db65cb3b6c44",
          "topics": [
            "0xff571df7d74779bb3bc4c418144ed2539441681cec39b558e6639f5faefc0695",
            "0x000000000000000000000000c1cdde11b0ed6b5fd0c0805b6b829310bbc16825"
          ],
          "data": "0x0000000000000000000000000000000000000000000000000000000000000001",
          "blockHash": "0xfe5f71b8e3aacf0fbfcfa766cbdaf7b5025d0ecd31147a9f69a4d413870b76fb",
          "blockNumber": "0x2d24dd3",
          "blockTimestamp": "0x6a2ef889",
          "transactionHash": "0x28b3c45409100748373b06ef8693aea393255cf59ee48967f49d63d650586dda",
          "transactionIndex": "0x77",
          "logIndex": "0x13c",
          "removed": false
        }
      ],
      "logsBloom": "0x00000000000000000000000000000000000000000000000000000000000000000000000000000000000000000004000000000000000000000008000000000000000000000040000002000002000000000000000008000000000000000000000000000000000000000000000000000000000000000000080000000000000000000000000000000000000000000000000000000000000000000000000000000000000000000000000000000000000000000000000000000000000000000000000000000000000000000000000000000000000000000000000000002000000000000000000000000000000000000000100000000000000000000000000000000000",
      "transactionHash": "0x28b3c45409100748373b06ef8693aea393255cf59ee48967f49d63d650586dda",
      "transactionIndex": "0x77",
      "blockHash": "0xfe5f71b8e3aacf0fbfcfa766cbdaf7b5025d0ecd31147a9f69a4d413870b76fb",
      "blockNumber": "0x2d24dd3",
      "gasUsed": "0xbaee",
      "effectiveGasPrice": "0x53ec7b",
      "blobGasUsed": "0x39d0",
      "from": "0xc5e1d8ac5aecb1db7c04f9f7a8d7c08a8824720c",
      "to": "0xb492dda0c1e9b98ebf0478fc28f6db65cb3b6c44",
      "contractAddress": null,
      "l1GasPrice": "0x4dcd0b7",
      "l1GasUsed": "0x640",
      "l1Fee": "0x2e63fc53",
      "l1BaseFeeScalar": "0x8dd",
      "l1BlobBaseFee": "0x45aeb5",
      "l1BlobBaseFeeScalar": "0x101c12",
      "daFootprintGasScalar": "0x94"
    }
  ],
  "libraries": [],
  "pending": [],
  "returns": {},
  "timestamp": 1781463178284,
  "chain": 8453,
  "commit": "c9e7f03"
}